:020000040800F2
:100000003004002001010008A90B0008810A000843
:10001000A50B0008C10400085913000800000000E7
:100020000000000000000000000000009D0F00081C
:100030006509000800000000030F0008891000088F
:100040001B0100081B0100081B0100081B01000820
:100050001B0100081B0100081B0100081B01000810
:100060001B0100081B0100081B0100081B01000800
:100070001B0100081B0100081B0100081B010008F0
:100080001B0100081B0100081B0100081B010008E0
:100090001B0100081B0100081B0100081B010008D0
:1000A0001B0100081B0100081B0100081B010008C0
:1000B000ED1000081B0100081B0100081B010008CF
:1000C0001B0100081B0100081B0100081B010008A0
:1000D0001B0100081B0100081B0100081B01000890
:1000E0001B0100081B0100081B010008DFF80CD0F1
:1000F00000F098F900480047011A00083004002079
:100100000648804706480047FEE7FEE7FEE7FEE7B1
:10011000FEE7FEE7FEE7FEE7FEE7FEE78D100008DC
:10012000ED00000880EA010210B502F00043400033
:1001300022D04A001FD0010E01EB1261C0F356001D
:10014000C2F3560240F4000042F40002A0FB022079
:1001500000047F39140400D0401C50EA124001D43E
:100160004000491EC2B20C0604EBD010401C4008EF
:10017000802A02D003E0002010BD20F001000029F9
:1001800000DA0020184310BD2DE9FE4F81EA030478
:1001900004F0004421F0004100944FF0000B23F0E4
:1001A000004350EA01045ED052EA03045BD0C3F37B
:1001B0000A54C1F30A552C44A4F2F3340194A0FB71
:1001C0000254C1F3130141F48011C3F3130343F448
:1001D000801301FB024400FB034E840A970A44EAA1
:1001E000815447EA8357A4FB076802958D0A05FBF3
:1001F00007854FEA932C04FB0C542705029D4FEA18
:10020000065847EA1637B5EB08056EEB070C870E64
:10021000920E47EA811742EA8312A7FB0201B6EB6E
:100220000B0164EB00042B0D43EA0C335E1844EB26
:100230001C50DA465146E7FB0201C5F313044FEAAE
:100240000B3343EA14534FEA0432019C43EA06039A
:10025000A4F10C040294009CCDE900B400F094F8E1
:1002600003B0BDE8F08F00200146F9E70EB540F27B
:10027000334102910021CDE900110A460B4600F0FE
:1002800083F803B000BD20F00040C10DC0F316009C
:1002900040F400007F2901DA00207047962903DC32
:1002A000C1F19601C840704796398840704701F007
:1002B000004330B421F0004150EA010206D00A0D9B
:1002C000A2F56072C1F31301002A02DC30BC0020E9
:1002D0007047440F44EAC104C100E01830BC00EB91
:1002E000C25000F00BB80000002801DBC0F1004054
:1002F000002901DBC1F10041814270470029A8BFFC
:100300007047401C490008BF20F00100704710B43E
:10031000B0FA80FC00FA0CF050EA010404BF10BCF3
:10032000704749B1CCF1200421FA04F411FA0CF120
:1003300018BF012121430843A3EB0C01CB1D4FEA59
:1003400000614FEA102042BF002010BC704700EB54
:10035000C35010440029A4BF10BC7047401C490082
:1003600008BF20F0010010BC704710B5141E73F1D7
:10037000000408DA401C41F1000192185B411A4365
:1003800001D120F0010010BD2DE9F04D92469B46B1
:1003900011B1B1FA81F202E0B0FA80F22032904657
:1003A00000F052F804460F4640EA0A0041EA0B0109
:1003B00053465A46084313D0114653EA010019D058
:1003C000C8F14002504600F04EF805460E46504631
:1003D0005946424600F038F8084305D0012004E0B1
:1003E00020463946BDE8F08D0020054346EAE07618
:1003F0002C4337430A986305E40AA0EB0800002267
:10040000FD0A44EA47540A3002D500200146E9E7D4
:10041000010510196941DDE9084500196941BDE888
:10042000F04DA2E7064C074D06E0E06840F00103FE
:1004300094E8070098471034AC42F6D3FFF75AFE11
:10044000182F0008382F0008202A04DB203A00FA71
:1004500002F1002070479140C2F1200320FA03F31B
:10046000194390407047202A04DB203A21FA02F019
:100470000021704721FA02F3D040C2F120029140DE
:10048000084319467047000008B50121082000F014
:1004900049FD4FF48040ADF8000010208DF80300B6
:1004A00003208DF802006946044800F05CFA4FF41E
:1004B0008041024800F0E2FA08BD0000000C014053
:1004C00000BFFEE708B50121082000F02BFD022047
:1004D000ADF8000003208DF8020010208DF8030015
:1004E0006946094800F03FFA0420ADF8000069466B
:1004F000054800F038FA0120ADF8000069460248CE
:1005000000F031FA08BD0000000C014008B50420DD
:10051000ADF8000048208DF803006946014800F05E
:1005200022FA08BD000C014008B50420ADF8000017
:1005300003208DF8020010208DF803006946024860
:1005400000F011FA08BD0000000C014010B50024B5
:1005500000218E2000F088F800BF07E0074A115DF7
:10056000074A105D00F080F8601CC4B2072CF5DB70
:1005700080218E2000F078F810BD00000E000020D1
:10058000070000202DE9F041054600240027002641
:10059000002029490860012001F062F90020274964
:1005A000C1F88401012001F05BF9012022490860B3
:1005B00001F056F9FFF7B8FF00BF14E005F00100A5
:1005C0001D49083108606D1001201C49C1F88401E3
:1005D00001F046F900201849091D0860012001F0CA
:1005E0003FF9601CC4B2082CE8DBFFF78FFF002442
:1005F00016E0114878380068C7B2F80140EA660092
:10060000C6B201200D49C1F8840101F029F900208A
:100610000949091D0860012001F022F9601CC4B2DB
:10062000082CE6DB002004490860012001F018F9DD
:100630003046BDE8F08100008081214200802142E7
:1006400010B5002400BF07E00549085DFFF79AFFD9
:1006500004490855601CC4B2072CF5DB10BD00002E
:10066000000000200E00002070B505460E46002454
:10067000002026490860012001F0F2F800202449FA
:10068000C1F88401012001F0EBF801201F49086046
:1006900001F0E6F8FFF748FF00BF14E005F00100A5
:1006A0001A49083108606D1001201949C1F8840108
:1006B00001F0D6F800201549091D0860012001F05D
:1006C000CFF8601CC4B2082CE8DB002414E006F06C
:1006D00001000E4908310860761001200C49C1F86C
:1006E000840101F0BDF800200849091D08600120BF
:1006F00001F0B6F8601CC4B2082CE8DB0020034906
:100700000860012001F0ACF870BD0000808121423A
:100710000080214210B5002400F064F804E0601C61
:10072000C4B2012001F09CF80D48006808B1C82C43
:10073000F5DBC82C01DB012010BD002404E0601CA7
:10074000C4B2012001F08CF80548006808B9F02C0B
:10075000F5DBF02C01DB0120EEE70020ECE70000E8
:100760003C8121422DE9F05F00F0C2F800F0AAF8C8
:10077000FFF7D0FFCC2000F0C7F8BE2000F0C4F88F
:1007800000F08EF8834600F08BF8824654460BEB5F
:10079000042084B204F47840B0F5784F0FD1E043E0
:1007A000401C84B22046FFF761FD074600220B4B38
:1007B000FFF7EAFC0546FFF77AFD81460BE020468D
:1007C000FFF754FD05460022054BFFF7DDFC074609
:1007D000FFF76DFD81464846BDE8F09F0000B0BFC1
:1007E0000000B03F08B54FF40040ADF800004820CD
:1007F0008DF803006946024800F0B5F808BD000016
:10080000000C014008B54FF40040ADF80000032093
:100810008DF8020010208DF803006946014800F0B1
:10082000A2F808BD000C014008B50121082000F025
:1008300079FB4FF40040ADF8000003208DF8020072
:1008400010208DF803006946034800F08CF800F092
:1008500039F8FFF75FFF08BD000C014010B5FFF746
:10086000D1FF00200C490860022000F0F9FF0120B0
:100870000A49C1F8BC01FFF7B5FF0C2000F0F0FFFA
:1008800005488038006808B1012400E000243220C7
:1008900000F0E6FF204610BDBC81214200802142CD
:1008A00070B50026012508E0FFF7D8FF0446E001F7
:1008B00040EA6600C6B2681CC5B2082DF4DD3046B9
:1008C00070BD000010B5FFF79DFF002006490860CD
:1008D00040F2EE2000F0C4FF01200449C1F8BC0141
:1008E0000F2000F0BDFF10BDBC81214200802142DD
:1008F00010B5FFF7E7FFFFF70DFFCC2000F004F87D
:10090000442000F001F810BD70B50446FFF77AFFEF
:10091000012520E004F0010664106EB100200F49AB
:100920000860022000F09CFF01200D49C1F8BC01C5
:100930003C2000F095FF0CE00020084908603C20B6
:1009400000F08EFF01200649C1F8BC01022000F032
:1009500087FF681CC5B2082DDCDD70BDBC8121425B
:100960000080214270472DE9F04102460025002613
:10097000002000230024002791F803C00CF00F058D
:1009800091F803C00CF0100CBCF1000F03D091F8EB
:1009900002C04CEA050591F800C0BCF1000F31D04F
:1009A000146800202BE04FF0010C0CFA00F3B1F8B2
:1009B00000C00CEA03069E4220D183004FF00F0CCA
:1009C0000CFA03F7BC4305FA03FC4CEA040491F863
:1009D00003C0BCF1280F06D14FF0010C0CFA00FC4B
:1009E000C2F814C00AE091F803C0BCF1480F05D169
:1009F0004FF0010C0CFA00FCC2F810C0401C082893
:100A0000D1D31460B1F800C0BCF1FF0F34DD5468DD
:100A100000202EE000F1080C4FF0010808FA0CF35A
:100A2000B1F800C00CEA03069E4221D183004FF0CA
:100A30000F0C0CFA03F7BC4305FA03FC4CEA040460
:100A400091F803C0BCF1280F05D100F1080C08FA99
:100A50000CF8C2F8148091F803C0BCF1480F07D11C
:100A600000F1080C4FF0010808FA0CF8C2F81080E9
:100A7000401C0828CED35460BDE8F0810161704766
:100A800000BFFEE708B50121082000F04BFA4FF443
:100A9000F850ADF8000048208DF803006946024880
:100AA000FFF761FF08BD0000000C014010B50446CF
:100AB000012C01D12B4908702A480078012835D132
:100AC0002948006878B12848001D006858B12648B8
:100AD0000830006838B124480C30006818B122484A
:100AE0001030006810BB012000F0AAFE00201D4954
:100AF00008701D48006808B9012010BD1A48001D83
:100B0000006808B90220F8E717480830006808B9FB
:100B10000320F2E714480C30006808B90420ECE721
:100B2000114810300068D8B90520E6E70E48006883
:100B3000012815D10C48001D0068012810D10A4871
:100B40000830006801280BD107480C3000680128E4
:100B500006D1054810300068012801D1014908700C
:100B60000020CAE7150000202081214208B501219C
:100B7000082000F0D7F94FF40040ADF80000102035
:100B80008DF8030003208DF8020069460348FFF743
:100B9000EAFE01200249086008BD0000000C014087
:100BA000BC81214200BFFEE77047000070B5002104
:100BB00000230F22C47804B3154C246804F4E064C5
:100BC000C4F5E064210AC1F10403CA40447804FA80
:100BD00003F184781440214309010E4C0678A15595
:100BE000047804F01F050124AC4005786D11AD00B8
:100BF00005F1E025C5F8004109E0047804F01F057F
:100C00000124AC40044D0678761145F8264070BDAD
:100C10000CED00E000E400E080E100E00249014367
:100C2000024A1160704700000000FA050CED00E078
:100C300070B5002419E004F1B001C8B2002100F041
:100C400054F90021084600F050F90021102000F06E
:100C50004CF9002505E00121002000F046F9681C50
:100C6000C5B2802DF7DB601CC4B2082CE3DB70BD7D
:100C700010B500F015FE0021AE2000F036F900217D
:100C8000084600F032F90021102000F02EF9002172
:100C9000402000F02AF90021B02000F026F90021C0
:100CA000812000F022F90021FF2000F01EF9002130
:100CB000A12000F01AF90021A62000F016F9002169
:100CC000A82000F012F900213F2000F00EF90021C9
:100CD000C82000F00AF90021D32000F006F9002115
:100CE000084600F002F90021D52000F0FEF80021AE
:100CF000802000F0FAF80021D82000F0F6F800215A
:100D0000052000F0F2F80021D92000F0EEF80021D3
:100D1000F12000F0EAF80021DA2000F0E6F80021E6
:100D2000122000F0E2F80021DB2000F0DEF80021C4
:100D3000302000F0DAF800218D2000F0D6F80021F4
:100D4000142000F0D2F80021AF2000F0CEF8FFF719
:100D50006FFF10BD70B504460D4605F1B001C8B275
:100D6000002100F0C2F8102141EA1410002100F027
:100D7000BCF804F00F0141F00100002100F0B5F8CB
:100D800070BD00002DE9F04707460E469046994693
:100D900000250024A8F12000C5B27F2F02DD002726
:100DA000B01CC6B2B9F1100F24D131463846FFF756
:100DB000D1FF002408E004EB0511194A505C012121
:100DC00000F093F8601CC4B2082CF4DB701CC1B2B4
:100DD0003846FFF7BFFF002409E004EB0511083196
:100DE0000F4A505C012100F080F8601CC4B2082C4E
:100DF000F3DB12E031463846FFF7ACFF00240AE08F
:100E000005EB4501074A02EB4101085D012100F0B5
:100E10006CF8601CC4B2062CF2DBBDE8F087000061
:100E200028290008002700082DE9FF5F07469146A2
:100E30001E460E9D4FF0000A002435E0301B401E78
:100E4000C1B20A2000F0E7FDB9FBF0F00A21B0FBC7
:100E5000F1F201FB1208BAF1000F14D1701EA0428A
:100E600011DDB8F1000F0CD1AB4605EBDB71491079
:100E700001FB0471C8B22B4620220199FFF782FFC3
:100E800010E04FF0010AAB4605EBDB71491001FBA6
:100E90000471C8B208F13001CAB22B460199FFF7BC
:100EA00071FF00BF601CC4B2B442C7DBBDE8FF9F46
:100EB0002DE9F04104460F461546984600260FE0FE
:100EC000AA5D434639462046FFF75CFF04F108005F
:100ED000C4B2782C02DD0024B81CC7B2701CC6B2A4
:100EE000A85D0028ECD1BDE8F08170B505460C4640
:100EF0001CB1284601F0EEFB02E0284601F0D4FBCD
:100F000070BD704729B1064AD2690243044BDA61C9
:100F100004E0034AD2698243014BDA617047000062
:100F20000010024029B1064A92690243044B9A61BB
:100F300004E0034A92698243014B9A6170470000C2
:100F40000010024001460020034A506820F00300D0
:100F500008435060704700000010024008B5802030
:100F6000ADF8000048208DF8030069460148FFF7FE
:100F7000FAFC08BD000C014008B58020ADF8000067
:100F800003208DF8020010208DF803006946024806
:100F9000FFF7E9FC08BD0000000C0140704710B5E8
:100FA00000F002F810BD00000CB500200190009088
:100FB0003348006840F480303149086000BF304851
:100FC000006800F4003000900198401C01900098E7
:100FD00018B90198B0F5A06FF1D12948006800F464
:100FE000003010B10120009001E000200090009836
:100FF000012843D12348006840F0100021490860CF
:101000000846006820F0030008600846006840F0C9
:10101000020008601A48406819494860084640685C
:1010200048600846406840F4806048600846406870
:1010300020F47C1048600846406840F4E81048609E
:101040000846006840F08070086000BF0C480068E7
:1010500000F000700028F9D00948406820F0030033
:10106000074948600846406840F00200486000BFF9
:101070000348406800F00C000828F9D10CBD0000BE
:1010800000100240002002407047000010B51348D5
:10109000006840F0010011490860084640681049A6
:1010A00008400E494860084600680E4908400B4950
:1010B00008600846006820F4802008600846406800
:1010C00020F4FE0048604FF41F008860FFF767FFC0
:1010D0004FF000600449086010BD0000001002409D
:1010E0000000FFF8FFFFF6FE08ED00E010B501215B
:1010F000880700F0C5F8002873D03C4840780228E3
:1011000049D13B480078401C3949087008460078AE
:10111000642866DB002008703448C07AD8B93348A8
:10112000007B002817DD3148007B401EC1B22F48EC
:1011300001733C202D49C8720846007B58B9084607
:10114000407B002807DD0846407B401EC1B227488F
:1011500041733C2101732548C07A401E2349C8725F
:101160000846C07A00283CD10846007BC8BB084628
:10117000407BB0BB00214FF0804000F075F80020AC
:101180001C4908604FF47A7000F05AFB01201A499C
:10119000C1F8B80125E015484078032821D113484B
:1011A000C07B401C1149C8730846C07B642818DB0B
:1011B0000020C8730846007C401CC1B20B48017473
:1011C000007C3C280DDB002108480174407C401C59
:1011D000C1B206484174407C3C2802DB0021034830
:1011E00041740121880700F03CF810BD1C0000206C
:1011F00018000020B8812142008021427FB50546B9
:101200000C4601210846FFF77DFEADF80850ADF809
:1012100004400020ADF80A00ADF8060001A94FF027
:10122000804000F047F801221146900700F039F89D
:101230000121880700F015F81C208DF8000002201D
:101240008DF8010003208DF8020001208DF80300C5
:101250006846FFF7ABFC00214FF0804000F004F837
:101260007FBDCA430282704721B1028842F0010269
:10127000028004E002884FF6FE731A400280704735
:1012800030B50246002000230024158A05EA010338
:10129000958905EA010413B10CB1012000E000209A
:1012A00030BD1AB183890B43838102E083898B436C
:1012B00083817047002202881D4B98420ED01D4B3F
:1012C00098420BD0B0F1804F08D01B4B984205D00C
:1012D0001A4B984202D01A4B984204D14FF68F73A2
:1012E0001A404B881A43174B984207D0164B984226
:1012F00004D04FF6FF431A40CB881A4302808B88F4
:1013000083850B8803850A4B98420BD0094B984282
:1013100008D00E4B984205D00D4B984202D00D4B91
:10132000984201D10B7A0386012383827047000023
:10133000002C01400034014000040040000800403F
:10134000000C00400010004000140040004001402C
:10135000004401400048014000BFFEE702E008C829
:10136000121F08C1002AFAD170477047002001E01F
:1013700001C1121F002AFBD1704700001B484078B2
:1013800090BB2CE01A4800781849097A88420FD19E
:10139000174841781548407A814209D1144881782C
:1013A0001248807A814203D100201249086015E07A
:1013B0000F4801780D48007A401C81420EDB0C4832
:1013C00041780A48407A814208D109488178074823
:1013D000807A814202D101200649086003E0034877
:1013E00000780028CED000BF704700001C0000200D
:1013F0000E000020B881214210B5FFF719FC0C2324
:1014000005A200210846FFF753FD0C2305A2022187
:101410000020FFF74DFD10BD416C61726D20436CE3
:101420006F636B0054696D653A31323A34333A3543
:101430003600000010B50024FFE00020FFF736FB67
:101440000446032C0DD18048807B401C7E49887364
:101450000846807B032801DB0020887300F0F8F841
:10146000E9E0042C0AD100F0F3F800207649487036
:1014700000F0D6FE012000F0F9F9E3E0052C34D1AC
:1014800000F0E6F8002000F0F1F96F484078401CC9
:101490006D49487008464078042804DB00204870F5
:1014A000012000F0E3F96848407820B1012805D018
:1014B000022809D105E000F0B3FE05E0FFF79CFF2C
:1014C00002E000F091F900BF00BF00205E49887380
:1014D0005E4881785C4881725C4841785A48417224
:1014E0005A48007858490872A5E0012C53D100F001
:1014F000AFF85548807B20B1012819D0022849D186
:101500002FE05148007A401C4F4908720846007A83
:1015100000F00F00092803DD0846007A801D0872DC
:101520004948007A602802DB00204749087231E010
:101530004548407A401CC1B243484172407A00F0AD
:101540000F00092805DD4048407A801DC1B23E48A1
:1015500041723D48407A602802DB00213A484172DE
:1015600018E03948807A401CC1B237488172807ACD
:1015700000F00F00092805DD3348807A801DC1B2D4
:10158000314881723048807A132802DB01212E48CD
:10159000817200BF4FE0022C4DD100F059F82A486B
:1015A000807B20B1012817D0022843D12BE02648A8
:1015B000007A012804DB2448007A401E2249087280
:1015C0002148007A00F00F000F2804D11E48007A4D
:1015D000801F1D4908722DE01B48407A012805DB59
:1015E0001948407A401EC1B2174841721648407AE5
:1015F00000F00F000F2805D11348407A801FC1B2B8
:101600001148417216E01048807A012805DB0E4827
:10161000807A401EC1B20C4881720B48807A00F07B
:101620000F000F2805D10848807A801FC1B20648F4
:10163000817200BF00BF00F049FA034840780128DA
:101640003FF4FBAE00BF10BD1C0000200E000020C8
:1016500010B5002004490860322000F0F1F80120A4
:101660000249C1F8B80110BDB88121420080214271
:1016700010B50024B0E00020FFF718FA0446032C50
:101680000DD15848807B401C564988730846807BA2
:10169000032801DB00208873FFF7DAFF9AE0042CAF
:1016A00009D1FFF7D5FF03204E4988730121880730
:1016B000FFF7DAFD8EE0052C2CD1FFF7C9FF0021E2
:1016C000A007FFF7D1FD002000F0D0F84548407892
:1016D000401C4449487008464078042804DB002038
:1016E0004870012000F0C2F83E48407820B101283F
:1016F00005D0022809D105E000F092FD05E0FFF7D2
:101700007BFE02E000F070F800BF00BF002035490A
:1017100088735FE0012C30D1FFF79AFF3148807B5E
:1017200020B101280ED0022826D118E02D48C07A19
:10173000401C2C49C8720846C07A3C2801DB0020B6
:10174000C87219E02748007B401CC1B225480173CC
:10175000007B3C2802DB0021224801730CE0214879
:10176000407B401CC1B21F484173407B0D2802DB07
:1017700001211C48417300BF2CE0022C2AD1FFF745
:1017800067FF1848807B20B101280CD0022820D1A7
:1017900014E01448C07A012804DB1248C07A401EC5
:1017A0001049C87215E00F48007B012805DB0D4881
:1017B000007B401EC1B20B4801730AE00948407B20
:1017C000012805DB0748407B401EC1B20548417334
:1017D00000BF00BF00F07AF90248407802283FF4C9
:1017E0004AAF10BD1C00002010B5FFF721FA0C23F2
:1017F00005A200210846FFF75BFB0C2305A202218E
:101800000020FFF755FB10BD436F756E74446F7772
:101810006E20200054696D653A30303A30303A30ED
:1018200030000000002106E00C2100BF0A1EA1F1DB
:101830000103D9B2FAD1021EA0F10100F4D1704720
:10184000002107E04FF4966100BF0A1EA1F10103D9
:1018500099B2FAD1021EA0F1010398B2F2D17047F9
:1018600000BF011EA0F10100FBD1704710B5044676
:1018700044B9094A127842F08001084A1078FEF70C
:10188000F3FE07E0044A127802F07F01034A107861
:10189000FEF7EAFE10BD00000E0000200700002049
:1018A00008B501210820FFF73DFB4020ADF80000FE
:1018B00003208DF8020010208DF8030069460848C7
:1018C000FFF751F88020ADF8000069460448FFF7A3
:1018D0004AF80120034908600349C1F89C0108BD8A
:1018E000000C0140988121420080214210B5FFF791
:1018F00043FB0120084908600849C1F89801FFF737
:1019000091FF0020044908600120FFF78BFF0020B1
:101910000249C1F8980110BD9C81214200802142FA
:1019200010B5FFF729FB0020084908600849C1F8F5
:101930009C01012005490860FFF774FF012004495C
:10194000C1F89C01FFF76EFF10BD00009881214295
:101950000080214210B5002401200F490860FFF7E4
:1019600061FFFFF7FBFA01200C49C1F89801FFF76E
:1019700059FF07E0601CC4B2FA2C03DDFFF7D0FF6B
:10198000012010BD0448803800680028F2D10249C7
:10199000091F086000BFF4E79C81214200802142BA
:1019A00070B50446FFF7E8FA0020134908600025E7
:1019B0001FE004F08000002804DD01200E49091D0D
:1019C000086003E000200C49091D08606006040E51
:1019D0000120FFF727FF012007490860FFF722FFDA
:1019E00000200649C1F898010120FFF71BFF681C81
:1019F000C5B2082DDDDB70BD9881214200802142F7
:101A00004FF4A060FFF70AF90020FFF79BFA00F0FF
:101A10000DF800BFFEE710B50246012000E050437C
:101A20000B1EA1F10104E1B2F9D110BD00F030FCB0
:101A3000FFF79CF8FEF728FDFFF724F8FFF718F9E9
:101A4000072142F20F70FFF7D9FBFEF73BFDFEF7CF
:101A50007DFD09E00C230CA200210846FFF728FABF
:101A60004FF4FA70FFF7ECFEFEF7DEFE0028F1D12E
:101A700000F0D6FB07E000F00FF800F027F800F0C8
:101A80000FFCFFF77BFCF6E744533138423230203D
:101A90004572726F7221000010B50CE00948008891
:101AA000401C0849088000BFFEF75CFE06494860FC
:101AB000FEF7C6FD03E0044840780028EED000BFE2
:101AC00010BD0000160000201C0000207FB500247F
:101AD00016E2F94948680021FEF706FC09D2F648EB
:101AE000406880F00040F44948602D208DF80400E3
:101AF00002E020208DF80400EF494868EF49FEF726
:101B000011FB0546FEF7BFFB84B24FF47A7094FBDD
:101B1000F0F03030C0B28DF805009DF80500302897
:101B200002D120208DF805004FF47A7094FBF0F17B
:101B300000FB1140642190FBF1F03030C0B28DF811
:101B400006009DF80600302808D19DF805003028D1
:101B500004D120208DF805008DF806004FF47A702E
:101B600094FBF0F100FB1140642190FBF1F201FBCA
:101B700012000A2190FBF1F03030C0B28DF807005E
:101B80002E208DF808004FF47A7094FBF0F100FBE2
:101B90001140642190FBF1F201FB12000A2190FB3D
:101BA000F1F201FB12003030C0B28DF809000020C4
:101BB0008DF80A000C2301AA00212820FFF778F9EC
:101BC000A5E0BF498879C11700EB117109113031C7
:101BD0008DF80410BA498879C11700EB1171091109
:101BE000A0EB01113031C9B28DF805102D208DF810
:101BF0000600B3490879C11700EB117109113031A2
:101C00008DF80710AE490879C11700EB1171091161
:101C1000A0EB01113031C9B28DF808102D208DF8DC
:101C20000900A749C878C11700EB117109113031BB
:101C30008DF80A10A249C878C11700EB117109117B
:101C4000A0EB01113031C9B28DF80B1000208DF8D6
:101C50000C000C2301AA02213820FFF729F998492A
:101C60008878C11700EB1171091130318DF804101B
:101C700093498878C11700EB11710911A0EB01118C
:101C80003031C9B28DF805103A208DF806008C4924
:101C90004878C11700EB1171091130318DF8071028
:101CA00087494878C11700EB11710911A0EB0111A8
:101CB0003031C9B28DF808103A208DF809008049FA
:101CC0000878C11700EB1171091130318DF80A1035
:101CD0007B490878C11700EB11710911A0EB0111C4
:101CE0003031C9B28DF80B1000208DF80C000C2398
:101CF00001AA04212820FFF7DBF80C20009070488F
:101D00004279012306212020FFF78EF804E06A487B
:101D1000007800283FF455AF00BFEAE068498879B1
:101D2000C11700EB1171091130318DF804106449AD
:101D30008879C11700EB11710911A0EB0111303145
:101D4000C9B28DF805102D208DF806005C49087980
:101D5000C11700EB1171091130318DF80710584986
:101D60000879C11700EB11710911A0EB0111303195
:101D7000C9B28DF808102D208DF809005049C87897
:101D8000C11700EB1171091130318DF80A104C495F
:101D9000C878C11700EB11710911A0EB01113031A6
:101DA000C9B28DF80B1000208DF80C000C2301AA8D
:101DB00002213820FFF77CF841498878C11700EBF1
:101DC0001171091130318DF804103D498878C1171F
:101DD00000EB11710911A0EB01113031C9B28DF87E
:101DE00005103A208DF8060035494878C11700EBF8
:101DF0001171091130318DF8071031494878C11738
:101E000000EB11710911A0EB01113031C9B28DF84D
:101E100008103A208DF8090029490878C11700EB0D
:101E20001171091130318DF80A1025490878C11750
:101E300000EB11710911A0EB01113031C9B28DF81D
:101E40000B1000208DF80C000C2301AA042128207F
:101E5000FFF72EF80C200090194842790123062143
:101E60002020FEF7E1FFC820FFF7EAFC1248807B44
:101E700007283CD2DFE800F0040B1219262D3400AD
:101E80000C23202204216020FEF77CFF2FE00C238E
:101E9000202204214820FEF775FF28E00C23202291
:101EA00004213020FEF76EFF21E00C2320220221C6
:101EB0007020FEF767FF1AE01C00002000002041A0
:101EC0000E0000200C23202202215820FEF75AFF8A
:101ED0000DE00C23202206211046FEF753FF06E0FA
:101EE0000C23202202214020FEF74CFF00BF00BF40
:101EF00004E09F48007801283FF410AF00BF04E0E1
:101F00009B48407800283FF4E4AD00BF6FE098495B
:101F1000887AC11700EB1171091130318DF8041066
:101F20009349887AC11700EB11710911A0EB0111D7
:101F30003031C9B28DF805103A208DF806008C4971
:101F4000487AC11700EB1171091130318DF8071073
:101F50008749487AC11700EB11710911A0EB0111F3
:101F60003031C9B28DF808103A208DF80900804947
:101F7000087AC11700EB1171091130318DF80A1080
:101F80007B49087AC11700EB11710911A0EB01110F
:101F90003031C9B28DF80B1000208DF80C000C23E5
:101FA00001AA02212820FEF783FFC820FFF748FC82
:101FB0006F48807B20B1012809D0022815D10DE09F
:101FC0000C23202202216020FEF7DCFE0DE00C2312
:101FD000202202214820FEF7D5FE06E00C23202215
:101FE00002213020FEF7CEFE00BF00BF03E06048B4
:101FF000407801288BD000BF67E05D48407B0A2114
:1020000090FBF1F03030C0B28DF804005848407BAE
:1020100090FBF1F201FB12003030C0B28DF80500E8
:102020003A208DF806005248007B90FBF1F03030EA
:10203000C0B28DF807004E48007B90FBF1F201FB27
:1020400012003030C0B28DF808003A208DF8090037
:102050004748C07A90FBF1F03030C0B28DF80A00EA
:102060004348C07A90FBF1F201FB12003030C0B25D
:102070008DF80B0000208DF80C000C2301AA022122
:102080002820FEF715FFC820FFF7DAFB3848807BD1
:1020900020B1012809D0022815D10DE00C232022FF
:1020A00002216020FEF76EFE0DE00C2320220221AB
:1020B0004820FEF767FE06E00C2320220221302094
:1020C000FEF760FE00BF00BF03E029484078022809
:1020D00093D000BF46E02648407C0A2190FBF1F0F7
:1020E0003030C0B28DF804002148407C90FBF1F202
:1020F00001FB12003030C0B28DF805003A208DF897
:1021000006001B48007C90FBF1F03030C0B28DF827
:1021100007001748007C90FBF1F201FB1200303001
:10212000C0B28DF808003A208DF809001048C07B35
:1021300090FBF1F03030C0B28DF80A000C48C07B43
:1021400090FBF1F201FB12003030C0B28DF80B00B1
:1021500000208DF80C000C2301AA02212820FEF794
:10216000A7FE03E0024840780328B4D000BF7FBD3B
:102170001C00002010B500244AE00020FEF796FC69
:102180000446032C06D101218807FFF76DF8FFF7FD
:102190005FFA3BE0042C06D100212007FFF764F82A
:1021A000FFF756FA32E0052C30D1FFF751FA002143
:1021B000A007FFF759F80020FFF758FB17484078B1
:1021C000401C1649487008464078042804DB00206B
:1021D00048700120FFF74AFB1048407830B10128D1
:1021E00007D0022808D003280CD108E000F018F826
:1021F00008E0FFF701F905E0FFF7F6FA02E000F06A
:1022000035FA00BF00BF002004498873FFF75EFC69
:10221000024840780328B0D010BD00001C00002008
:1022200010B5FEF705FD0C230BA200210846FEF7B2
:102230003FFE0C230CA202210020FEF739FE0C23E6
:102240000DA204210020FEF733FE0C230EA206216E
:102250000020FEF72DFE10BD54656D706520202016
:102260002020202020204300446174653A3230321F
:10227000322D30352D30360054696D653A31323AA1
:1022800034333A35360000004461793A37000000B3
:102290000020024948700870887370471C000020B5
:1022A00010B500240020FEF701FC0446032C08D1E1
:1022B00001202F49087000208873FFF7D7FAFFF735
:1022C000C7F9052C4AD1FFF7C3F90021A007FEF793
:1022D000CBFF0020FFF7CAFA25484078401C24496C
:1022E000487008464078042804DB0020487001202C
:1022F000FFF7BCFA1E48407830B1012807D0022809
:1023000008D003280CD108E0FFF78AFF08E0FFF7A8
:1023100073F805E0FFF768FA02E000F0A7F900BFE4
:1023200000BF0020124988731248817810488172DA
:10233000104841780E4841720E4800780C490872E6
:102340000A210B4841730821017305200849C8720E
:102350000020C873002106480174417400F00CF895
:10236000FFF768F8FFF784F9FFF704FF10BD0000DE
:102370001C0000200E00002010B500246AE100209F
:10238000FEF794FB0446032C0DD1B648807B401C1D
:10239000B44988730846807B072801DB00208873D6
:1023A000FFF756F954E1042C07D1FFF751F9FEF776
:1023B000CDF80020AB49087051E1012C7ED1FFF728
:1023C00047F9A848807B07281BD2DFE800F0041BF0
:1023D000324960788F00A4480078401CA2490870F8
:1023E0000846007800F00F00092803DD0846007851
:1023F000801D08709C480078602802DB00209A4904
:1024000008708AE098484078401C97494870084610
:10241000407800F00F00092803DD08464078801D51
:10242000487091484078602802DB00208E4948704F
:1024300073E08D488078401C8B498870084680780E
:1024400000F00F00092803DD08468078801D8870A1
:1024500085488078242802DB0120834988705CE06D
:102460008148C078401C8049C8700846C07800F098
:102470000F00092803DD0846C078801DC8707A481F
:10248000C078322802DB01207749C87045E07648E1
:102490000079401C744908710846007900F00F006B
:1024A000092803DD08460079801D08716E4800790F
:1024B000132802DB01206C4908712EE02EE06A48E7
:1024C0004079401C684948710846407900F00F0087
:1024D000092803DD08464079801D4871624840792B
:1024E000082802DB01206049487116E05E488079C7
:1024F000401C5D4988710846807900F00F0009286A
:1025000003DD08468079801D8871574880799928B5
:1025100002DB00205449887100BF99E0022CFCD1F5
:10252000FFF796F84F48807B072819D2DFE800F0C4
:1025300004192E43596F7A004B480078012804DBB8
:1025400049480078401E484908704748007800F024
:102550000F000F2804D144480078801F42490870BA
:1025600075E041484078012804DB3F484078401E30
:102570003D4948703C48407800F00F000F2804D1D6
:1025800039484078801F3849487060E03648807884
:10259000012804DB34488078401E33498870324873
:1025A000807800F00F000F2804D12F488078801F1A
:1025B0002D4988704BE02C48C078401E2A49C870CD
:1025C0000846C07800F00F000F2803D10846C078F5
:1025D000801FC8702448C07810B931202249C870C3
:1025E00035E021480079401E1F49087108460079EE
:1025F00000F00F000F2803D108460079801F0871F2
:102600001948007910B91220174908711FE01648BF
:102610004079401E144948710846407908B907209E
:10262000487114E010488079012804DB0E48807955
:10263000401E0D4988710C48807900F00F000F286A
:1026400004D109488079801F0749887100BF00BF05
:10265000FFF73CFA0348007801283FF490AE00BF32
:1026600010BD00001C0000200E00002010B5FEF779
:10267000DFFA0C2305A200210846FEF719FC0C2303
:1026800005A202210020FEF713FC10BD54696D6500
:10269000205365742020200054696D653A30303A2B
:1026A00030303A303000000010B50446FFF71EF914
:1026B0007820FFF775F9FFF74DF90020FFF770F963
:1026C000FFF748F92046FFF76BF9FFF743F9FFF7EB
:1026D00027F910BD10B50446FFF708F97820FFF779
:1026E0005FF9FFF737F94020FFF75AF9FFF732F9A2
:1026F0002046FFF755F9FFF72DF9FFF711F910BD47
:102700000000000000000000002F00000000070093
:10271000070000147F147F1400242A7F2A1200620D
:1027200064081323003649552250000005030000B9
:1027300000001C224100000041221C000014083E41
:1027400008140008083E0808000000A06000000807
:10275000080808080000606000000020100804025B
:10276000003E5149453E0000427F40000042615119
:102770004946002141454B31001814127F100027B3
:1027800045454539003C4A49493000017109050376
:1027900000364949493600064949291E00003636A7
:1027A000000000005636000000081422410000140A
:1027B00014141414000041221408000201510906E7
:1027C00000324959513E007C1211127C007F494968
:1027D0004936003E41414122007F4141221C007F99
:1027E00049494941007F09090901003E4149497AA7
:1027F000007F0808087F0000417F41000020404121
:102800003F01007F08142241007F40404040007F8C
:10281000020C027F007F0408107F003E4141413ED0
:10282000007F09090906003E4151215E007F091918
:1028300029460046494949310001017F0101003F15
:102840004040403F001F2040201F003F4038403F95
:1028500000631408146300070870080700615149F9
:10286000454300007F41410000552A552A5500008C
:1028700041417F000004020102040040404040400A
:10288000000001020400002054545478007F4844A2
:10289000443800384444442000384444487F0038D9
:1028A0005454541800087E0901020018A4A4A47C02
:1028B000007F080404780000447D400000408084CC
:1028C0007D00007F102844000000417F4000007C14
:1028D00004180478007C0804047800384444443820
:1028E00000FC242424180018242418FC007C08046C
:1028F000040800485454542000043F444020003C45
:102900004040207C001C2040201C003C4030403CCB
:10291000004428102844001CA0A0A07C004464545B
:102920004C4414141414141400000000000000009F
:102930000000000000000000000000F8000000009F
:10294000000000333000000000100C06100C0600E0
:10295000000000000000000040C07840C078400047
:10296000043F04043F040400007088FC08300000A9
:10297000001820FF211E0000F008F000E018000001
:1029800000211C031E211E0000F0088870000000BA
:102990001E2123241927211010160E00000000000C
:1029A0000000000000000000000000E01804020029
:1029B000000000071820400000020418E00000009A
:1029C0000040201807000000404080F08040400098
:1029D0000202010F01020200000000F000000000EE
:1029E0000101011F010101000000000000000000C2
:1029F00080B0700000000000000000000000000037
:102A000000010101010101010000000000000000BF
:102A1000003030000000000000000000806018045A
:102A2000006018060100000000E010080810E00037
:102A3000000F102020100F00001010F80000000000
:102A40000020203F20200000007008080888700047
:102A500000302824222130000030088888483000C7
:102A60000018202020110E000000C02010F80000E7
:102A700000070424243F240000F808888808080080
:102A80000019212020110E0000E010888818000095
:102A9000000F112020110E0000380808C838080067
:102AA0000000003F000000000070880808887000E7
:102AB000001C222121221C0000E010080810E00068
:102AC0000000312222110F00000000C0C0000000F1
:102AD0000000003030000000000000800000000016
:102AE000000080600000000000008040201008000E
:102AF00000010204081020004040404040404000D7
:102B000004040404040404000008102040800000B1
:102B10000020100804020100007048080808F000B6
:102B20000000003036010000C030C828E810E00086
:102B30000718272423140B000000C038E000000011
:102B4000203C23020227382008F88888887000007B
:102B5000203F202020110E00C0300808080838004F
:102B6000071820202010080008F808080810E000C6
:102B7000203F202020100F0008F88888E808100067
:102B8000203F20202320180008F88888E80810003B
:102B9000203F200003000000C03008080838000073
:102BA00007182020221E020008F808000008F80874
:102BB000203F210101213F20000808F808080000FB
:102BC0000020203F2020000000000808F80808002E
:102BD000C08080807F00000008F888C028180800A6
:102BE000203F20012638200008F8080000000000DF
:102BF000203F20202020300008F8F800F8F80800D6
:102C0000203F003F003F200008F830C00008F808CF
:102C1000203F200007183F00E01008080810E000DF
:102C20000F10202020100F0008F808080808F000F6
:102C3000203F210101010000E01008080810E00019
:102C40000F18242438504F0008F8888888887000AE
:102C5000203F2000030C302000708808080838004E
:102C60000038202121221C00180808F80808180044
:102C70000000203F2000000008F808000008F808C5
:102C8000001F202020201F000878880000C8380876
:102C9000000007380E010000F80800F80008F800EE
:102CA000033C0700073C0300081868808068180888
:102CB00020302C03032C30200838C800C838080006
:102CC0000000203F2000000010080808C838080055
:102CD0002038262120201800000000FE02020200F9
:102CE0000000007F40404000000C30C000000000A9
:102CF000000000010638C00000020202FE000000D1
:102D0000004040407F000000000004020202040076
:102D100000000000000000000000000000000000B3
:102D2000808080808080808000020204000000009B
:102D30000000000000000000000080808080000093
:102D40000019242222223F2008F800808000000081
:102D5000003F112020110E00000000808080000044
:102D6000000E112020201100000000808088F80053
:102D7000000E112020103F20000080808080000085
:102D8000001F222222221300008080F088888818E9
:102D90000020203F202000000000808080808000F4
:102DA000006B94949493600008F800808080000089
:102DB000203F210000203F20008098980000000064
:102DC0000020203F20200000000000809898000094
:102DD00000C08080807F000008F8000080808000B4
:102DE000203F24022D302000000808F800000000D9
:102DF0000020203F20200000808080808080800094
:102E0000203F20003F20003F808000808080000025
:102E1000203F210000203F200000808080800000B3
:102E2000001F202020201F008080008080000000E4
:102E300080FFA12020110E00000000808080800013
:102E4000000E112020A0FF80808080008080800004
:102E500020203F2120000100000080808080800031
:102E60000033242424241900008080E080800000A6
:102E70000000001F202000008080000000808000F3
:102E8000001F202020103F20808080000080808054
:102E900000010E30080601008080008000808080E4
:102EA0000F300C030C300F00008080008080800009
:102EB0000020312E0E312000808080000080808034
:102EC00080818E70180601000080808080808000E4
:102ED0000021302C2221300000000000807C020202
:102EE00000000000003F404000000000FF00000024
:102EF00000000000FF0000000002027C80000000D3
:102F00000040403F000000000006010102020404EE
:102F10000000000000000000382F00080000002022
:102F20001C0000005C130008542F00081C00002047
:102F3000140400006C13000881838587898B8D80C1
:102F4000828486888A8C4751130605052201000079
:042F5000000000007D
:04000005080000ED02
:00000001FF
